{
  "contractName": "FlightSuretyData",
  "abi": [
    {
      "constant": true,
      "inputs": [
        {
          "name": "",
          "type": "address"
        }
      ],
      "name": "airlines",
      "outputs": [
        {
          "name": "name",
          "type": "string"
        },
        {
          "name": "account",
          "type": "address"
        },
        {
          "name": "isRegistered",
          "type": "bool"
        },
        {
          "name": "isAuthorized",
          "type": "bool"
        },
        {
          "name": "operationalVote",
          "type": "bool"
        }
      ],
      "payable": false,
      "stateMutability": "view",
      "type": "function"
    },
    {
      "inputs": [],
      "payable": false,
      "stateMutability": "nonpayable",
      "type": "constructor"
    },
    {
      "payable": true,
      "stateMutability": "payable",
      "type": "fallback"
    },
    {
      "anonymous": false,
      "inputs": [
        {
          "indexed": true,
          "name": "account",
          "type": "address"
        }
      ],
      "name": "RegisterAirline",
      "type": "event"
    },
    {
      "anonymous": false,
      "inputs": [
        {
          "indexed": false,
          "name": "account",
          "type": "address"
        }
      ],
      "name": "AuthorizeAirline",
      "type": "event"
    },
    {
      "constant": true,
      "inputs": [],
      "name": "isOperational",
      "outputs": [
        {
          "name": "",
          "type": "bool"
        }
      ],
      "payable": false,
      "stateMutability": "view",
      "type": "function"
    },
    {
      "constant": true,
      "inputs": [
        {
          "name": "account",
          "type": "address"
        }
      ],
      "name": "getAirlineName",
      "outputs": [
        {
          "name": "",
          "type": "string"
        }
      ],
      "payable": false,
      "stateMutability": "view",
      "type": "function"
    },
    {
      "constant": true,
      "inputs": [
        {
          "name": "account",
          "type": "address"
        }
      ],
      "name": "getAirlineAccount",
      "outputs": [
        {
          "name": "",
          "type": "address"
        }
      ],
      "payable": false,
      "stateMutability": "view",
      "type": "function"
    },
    {
      "constant": true,
      "inputs": [
        {
          "name": "account",
          "type": "address"
        }
      ],
      "name": "getRegistrationStatus",
      "outputs": [
        {
          "name": "",
          "type": "bool"
        }
      ],
      "payable": false,
      "stateMutability": "view",
      "type": "function"
    },
    {
      "constant": true,
      "inputs": [
        {
          "name": "account",
          "type": "address"
        }
      ],
      "name": "getAuthorizationStatus",
      "outputs": [
        {
          "name": "",
          "type": "bool"
        }
      ],
      "payable": false,
      "stateMutability": "view",
      "type": "function"
    },
    {
      "constant": true,
      "inputs": [
        {
          "name": "account",
          "type": "address"
        }
      ],
      "name": "getOperationalVote",
      "outputs": [
        {
          "name": "",
          "type": "bool"
        }
      ],
      "payable": false,
      "stateMutability": "view",
      "type": "function"
    },
    {
      "constant": false,
      "inputs": [
        {
          "name": "mode",
          "type": "bool"
        },
        {
          "name": "caller",
          "type": "address"
        }
      ],
      "name": "setOperatingStatus",
      "outputs": [],
      "payable": false,
      "stateMutability": "nonpayable",
      "type": "function"
    },
    {
      "constant": false,
      "inputs": [
        {
          "name": "name",
          "type": "string"
        },
        {
          "name": "newAirline",
          "type": "address"
        },
        {
          "name": "admin",
          "type": "address"
        }
      ],
      "name": "registerAirline",
      "outputs": [
        {
          "name": "success",
          "type": "bool"
        },
        {
          "name": "authorizedAirlineNumber",
          "type": "uint256"
        },
        {
          "name": "votes",
          "type": "uint256"
        }
      ],
      "payable": false,
      "stateMutability": "nonpayable",
      "type": "function"
    },
    {
      "constant": false,
      "inputs": [],
      "name": "buy",
      "outputs": [],
      "payable": true,
      "stateMutability": "payable",
      "type": "function"
    },
    {
      "constant": true,
      "inputs": [],
      "name": "creditInsurees",
      "outputs": [],
      "payable": false,
      "stateMutability": "pure",
      "type": "function"
    },
    {
      "constant": true,
      "inputs": [],
      "name": "pay",
      "outputs": [],
      "payable": false,
      "stateMutability": "pure",
      "type": "function"
    },
    {
      "constant": false,
      "inputs": [
        {
          "name": "sender",
          "type": "address"
        }
      ],
      "name": "fund",
      "outputs": [],
      "payable": true,
      "stateMutability": "payable",
      "type": "function"
    }
  ],
  "bytecode": "0x60806040526001600060146101000a81548160ff0219169083151502179055506000600155600060035560006040519080825280602002602001820160405280156200005a5781602001602082028038833980820191505090505b5060059080519060200190620000729291906200033a565b503480156200008057600080fd5b50336000806101000a81548173ffffffffffffffffffffffffffffffffffffffff021916908373ffffffffffffffffffffffffffffffffffffffff16021790555060a0604051908101604052806040805190810160405280600c81526020017f44656661756c74204e616d65000000000000000000000000000000000000000081525081526020016000809054906101000a900473ffffffffffffffffffffffffffffffffffffffff1673ffffffffffffffffffffffffffffffffffffffff16815260200160011515815260200160011515815260200160011515815250600760008060009054906101000a900473ffffffffffffffffffffffffffffffffffffffff1673ffffffffffffffffffffffffffffffffffffffff1673ffffffffffffffffffffffffffffffffffffffff1681526020019081526020016000206000820151816000019080519060200190620001dc929190620003c9565b5060208201518160010160006101000a81548173ffffffffffffffffffffffffffffffffffffffff021916908373ffffffffffffffffffffffffffffffffffffffff16021790555060408201518160010160146101000a81548160ff02191690831515021790555060608201518160010160156101000a81548160ff02191690831515021790555060808201518160010160166101000a81548160ff021916908315150217905550905050620002ad60016003546200031d6401000000000262001831179091906401000000009004565b6003819055506000809054906101000a900473ffffffffffffffffffffffffffffffffffffffff1673ffffffffffffffffffffffffffffffffffffffff167fac78ffce05a964fd93df05896e78ca7d509ad473c8ac2aee9009a32a60afa95160405160405180910390a2620004be565b600081830190508281101515156200033157fe5b80905092915050565b828054828255906000526020600020908101928215620003b6579160200282015b82811115620003b55782518260006101000a81548173ffffffffffffffffffffffffffffffffffffffff021916908373ffffffffffffffffffffffffffffffffffffffff160217905550916020019190600101906200035b565b5b509050620003c5919062000450565b5090565b828054600181600116156101000203166002900490600052602060002090601f016020900481019282601f106200040c57805160ff19168380011785556200043d565b828001600101855582156200043d579182015b828111156200043c5782518255916020019190600101906200041f565b5b5090506200044c919062000496565b5090565b6200049391905b808211156200048f57600081816101000a81549073ffffffffffffffffffffffffffffffffffffffff02191690555060010162000457565b5090565b90565b620004bb91905b80821115620004b75760008160009055506001016200049d565b5090565b90565b61193480620004ce6000396000f3006080604052600436106100c5576000357c0100000000000000000000000000000000000000000000000000000000900463ffffffff168063072d8da6146100d05780631b9265b814610153578063230244081461016a57806336cee484146101a057806341684769146101b7578063524b6100146102c75780638400729e1461038357806395e882b214610424578063a6f2ae3a1461047f578063a8af4ff514610489578063c590dda5146104e4578063cd905dff14610533578063d3e9c31414610562575b6100ce336105bd565b005b3480156100dc57600080fd5b50610111600480360381019080803573ffffffffffffffffffffffffffffffffffffffff169060200190929190505050610823565b604051808273ffffffffffffffffffffffffffffffffffffffff1673ffffffffffffffffffffffffffffffffffffffff16815260200191505060405180910390f35b34801561015f57600080fd5b5061016861088f565b005b61019e600480360381019080803573ffffffffffffffffffffffffffffffffffffffff1690602001909291905050506105bd565b005b3480156101ac57600080fd5b506101b5610891565b005b3480156101c357600080fd5b506101f8600480360381019080803573ffffffffffffffffffffffffffffffffffffffff169060200190929190505050610893565b60405180806020018673ffffffffffffffffffffffffffffffffffffffff1673ffffffffffffffffffffffffffffffffffffffff168152602001851515151581526020018415151515815260200183151515158152602001828103825287818151815260200191508051906020019080838360005b8381101561028857808201518184015260208101905061026d565b50505050905090810190601f1680156102b55780820380516001836020036101000a031916815260200191505b50965050505050505060405180910390f35b3480156102d357600080fd5b50610308600480360381019080803573ffffffffffffffffffffffffffffffffffffffff1690602001909291905050506109a8565b6040518080602001828103825283818151815260200191508051906020019080838360005b8381101561034857808201518184015260208101905061032d565b50505050905090810190601f1680156103755780820380516001836020036101000a031916815260200191505b509250505060405180910390f35b34801561038f57600080fd5b506103fc600480360381019080803590602001908201803590602001919091929391929390803573ffffffffffffffffffffffffffffffffffffffff169060200190929190803573ffffffffffffffffffffffffffffffffffffffff169060200190929190505050610a8c565b6040518084151515158152602001838152602001828152602001935050505060405180910390f35b34801561043057600080fd5b50610465600480360381019080803573ffffffffffffffffffffffffffffffffffffffff1690602001909291905050506111a0565b604051808215151515815260200191505060405180910390f35b6104876111f9565b005b34801561049557600080fd5b506104ca600480360381019080803573ffffffffffffffffffffffffffffffffffffffff1690602001909291905050506111fb565b604051808215151515815260200191505060405180910390f35b3480156104f057600080fd5b50610531600480360381019080803515159060200190929190803573ffffffffffffffffffffffffffffffffffffffff169060200190929190505050611254565b005b34801561053f57600080fd5b506105486117c2565b604051808215151515815260200191505060405180910390f35b34801561056e57600080fd5b506105a3600480360381019080803573ffffffffffffffffffffffffffffffffffffffff1690602001909291905050506117d8565b604051808215151515815260200191505060405180910390f35b600080600660008473ffffffffffffffffffffffffffffffffffffffff1673ffffffffffffffffffffffffffffffffffffffff168152602001908152602001600020549150610615348361183190919063ffffffff16565b90506000600660008573ffffffffffffffffffffffffffffffffffffffff1673ffffffffffffffffffffffffffffffffffffffff168152602001908152602001600020819055508273ffffffffffffffffffffffffffffffffffffffff166108fc829081150290604051600060405180830381858888f193505050501580156106a2573d6000803e3d6000fd5b5060001515600760008573ffffffffffffffffffffffffffffffffffffffff1673ffffffffffffffffffffffffffffffffffffffff16815260200190815260200160002060010160159054906101000a900460ff16151514156107da576001600760008573ffffffffffffffffffffffffffffffffffffffff1673ffffffffffffffffffffffffffffffffffffffff16815260200190815260200160002060010160156101000a81548160ff021916908315150217905550610770600160035461183190919063ffffffff16565b6003819055507f3336d1fa2c11beb56ec41819fdc657ba8629e1c66848fc7fb263a70b373735f883604051808273ffffffffffffffffffffffffffffffffffffffff1673ffffffffffffffffffffffffffffffffffffffff16815260200191505060405180910390a15b80600660008573ffffffffffffffffffffffffffffffffffffffff1673ffffffffffffffffffffffffffffffffffffffff16815260200190815260200160002081905550505050565b6000600760008373ffffffffffffffffffffffffffffffffffffffff1673ffffffffffffffffffffffffffffffffffffffff16815260200190815260200160002060010160009054906101000a900473ffffffffffffffffffffffffffffffffffffffff169050919050565b565b565b6007602052806000526040600020600091509050806000018054600181600116156101000203166002900480601f01602080910402602001604051908101604052809291908181526020018280546001816001161561010002031660029004801561093f5780601f106109145761010080835404028352916020019161093f565b820191906000526020600020905b81548152906001019060200180831161092257829003601f168201915b5050505050908060010160009054906101000a900473ffffffffffffffffffffffffffffffffffffffff16908060010160149054906101000a900460ff16908060010160159054906101000a900460ff16908060010160169054906101000a900460ff16905085565b6060600760008373ffffffffffffffffffffffffffffffffffffffff1673ffffffffffffffffffffffffffffffffffffffff1681526020019081526020016000206000018054600181600116156101000203166002900480601f016020809104026020016040519081016040528092919081815260200182805460018160011615610100020316600290048015610a805780601f10610a5557610100808354040283529160200191610a80565b820191906000526020600020905b815481529060010190602001808311610a6357829003601f168201915b50505050509050919050565b60008060008060046003541015610c745760a06040519081016040528089898080601f01602080910402602001604051908101604052809392919081815260200183838082843782019150505050505081526020018773ffffffffffffffffffffffffffffffffffffffff16815260200160011515815260200160001515815260200160011515815250600760008873ffffffffffffffffffffffffffffffffffffffff1673ffffffffffffffffffffffffffffffffffffffff1681526020019081526020016000206000820151816000019080519060200190610b71929190611863565b5060208201518160010160006101000a81548173ffffffffffffffffffffffffffffffffffffffff021916908373ffffffffffffffffffffffffffffffffffffffff16021790555060408201518160010160146101000a81548160ff02191690831515021790555060608201518160010160156101000a81548160ff02191690831515021790555060808201518160010160166101000a81548160ff0219169083151502179055509050508573ffffffffffffffffffffffffffffffffffffffff167fac78ffce05a964fd93df05896e78ca7d509ad473c8ac2aee9009a32a60afa95160405160405180910390a260016003546001809050935093509350611195565b600090506001600460008873ffffffffffffffffffffffffffffffffffffffff1673ffffffffffffffffffffffffffffffffffffffff16815260200190815260200160002060008773ffffffffffffffffffffffffffffffffffffffff1673ffffffffffffffffffffffffffffffffffffffff16815260200190815260200160002060009054906101000a900460ff1660ff161415610d1257600190505b80151515610dae576040517f08c379a00000000000000000000000000000000000000000000000000000000081526004018080602001828103825260278152602001807f43616c6c65722068617320616c72656164792063616c6c65642074686973206681526020017f756e6374696f6e0000000000000000000000000000000000000000000000000081525060400191505060405180910390fd5b6001600460008873ffffffffffffffffffffffffffffffffffffffff1673ffffffffffffffffffffffffffffffffffffffff16815260200190815260200160002060008773ffffffffffffffffffffffffffffffffffffffff1673ffffffffffffffffffffffffffffffffffffffff16815260200190815260200160002060006101000a81548160ff021916908360ff160217905550610e976001600b60008973ffffffffffffffffffffffffffffffffffffffff1673ffffffffffffffffffffffffffffffffffffffff1681526020019081526020016000205461183190919063ffffffff16565b600b60008873ffffffffffffffffffffffffffffffffffffffff1673ffffffffffffffffffffffffffffffffffffffff16815260200190815260200160002081905550610ef0600260035461184d90919063ffffffff16565b600b60008873ffffffffffffffffffffffffffffffffffffffff1673ffffffffffffffffffffffffffffffffffffffff168152602001908152602001600020541015156111495760a06040519081016040528089898080601f01602080910402602001604051908101604052809392919081815260200183838082843782019150505050505081526020018773ffffffffffffffffffffffffffffffffffffffff16815260200160011515815260200160011515815260200160011515815250600760008873ffffffffffffffffffffffffffffffffffffffff1673ffffffffffffffffffffffffffffffffffffffff168152602001908152602001600020600082015181600001908051906020019061100b929190611863565b5060208201518160010160006101000a81548173ffffffffffffffffffffffffffffffffffffffff021916908373ffffffffffffffffffffffffffffffffffffffff16021790555060408201518160010160146101000a81548160ff02191690831515021790555060608201518160010160156101000a81548160ff02191690831515021790555060808201518160010160166101000a81548160ff0219169083151502179055509050508573ffffffffffffffffffffffffffffffffffffffff167fac78ffce05a964fd93df05896e78ca7d509ad473c8ac2aee9009a32a60afa95160405160405180910390a26001600354600b60008973ffffffffffffffffffffffffffffffffffffffff1673ffffffffffffffffffffffffffffffffffffffff16815260200190815260200160002054935093509350611195565b6000600354600b60008973ffffffffffffffffffffffffffffffffffffffff1673ffffffffffffffffffffffffffffffffffffffff168152602001908152602001600020549350935093505b509450945094915050565b6000600760008373ffffffffffffffffffffffffffffffffffffffff1673ffffffffffffffffffffffffffffffffffffffff16815260200190815260200160002060010160169054906101000a900460ff169050919050565b565b6000600760008373ffffffffffffffffffffffffffffffffffffffff1673ffffffffffffffffffffffffffffffffffffffff16815260200190815260200160002060010160149054906101000a900460ff169050919050565b6000809054906101000a900473ffffffffffffffffffffffffffffffffffffffff1673ffffffffffffffffffffffffffffffffffffffff163373ffffffffffffffffffffffffffffffffffffffff16141515611318576040517f08c379a000000000000000000000000000000000000000000000000000000000815260040180806020018281038252601c8152602001807f43616c6c6572206973206e6f7420636f6e7472616374206f776e65720000000081525060200191505060405180910390fd5b600760008273ffffffffffffffffffffffffffffffffffffffff1673ffffffffffffffffffffffffffffffffffffffff16815260200190815260200160002060a06040519081016040529081600082018054600181600116156101000203166002900480601f0160208091040260200160405190810160405280929190818152602001828054600181600116156101000203166002900480156113fc5780601f106113d1576101008083540402835291602001916113fc565b820191906000526020600020905b8154815290600101906020018083116113df57829003601f168201915b505050505081526020016001820160009054906101000a900473ffffffffffffffffffffffffffffffffffffffff1673ffffffffffffffffffffffffffffffffffffffff1673ffffffffffffffffffffffffffffffffffffffff1681526020016001820160149054906101000a900460ff161515151581526020016001820160159054906101000a900460ff161515151581526020016001820160169054906101000a900460ff1615151515815250508060600151151561154b576040517f08c379a00000000000000000000000000000000000000000000000000000000081526004018080602001828103825260398152602001807f4169726c696e65206973206e6f7420617574686f72697a656420746f2070617281526020017f746963697061746520696e20746869732066756e6374696f6e0000000000000081525060400191505060405180910390fd5b600760008373ffffffffffffffffffffffffffffffffffffffff1673ffffffffffffffffffffffffffffffffffffffff16815260200190815260200160002060010160169054906101000a900460ff161515600060149054906101000a900460ff161515141515611624576040517f08c379a00000000000000000000000000000000000000000000000000000000081526004018080602001828103825260108152602001807f4475706c69636174652063616c6c65720000000000000000000000000000000081525060200191505060405180910390fd5b600060149054906101000a900460ff161515831515141515156116d5576040517f08c379a000000000000000000000000000000000000000000000000000000000815260040180806020018281038252602d8152602001807f4e6577206d6f6465206d75737420626520646966666572656e742066726f6d2081526020017f6578697374696e67206d6f64650000000000000000000000000000000000000081525060400191505060405180910390fd5b600460035410156116ff5782600060146101000a81548160ff0219169083151502179055506117bd565b6117146001805461183190919063ffffffff16565b60018190555082600760008473ffffffffffffffffffffffffffffffffffffffff1673ffffffffffffffffffffffffffffffffffffffff16815260200190815260200160002060010160166101000a81548160ff02191690831515021790555061178a600260035461184d90919063ffffffff16565b6001541015156117bc5782600060146101000a81548160ff021916908315150217905550600154600354036001819055505b5b505050565b60008060149054906101000a900460ff16905090565b6000600760008373ffffffffffffffffffffffffffffffffffffffff1673ffffffffffffffffffffffffffffffffffffffff16815260200190815260200160002060010160159054906101000a900460ff169050919050565b6000818301905082811015151561184457fe5b80905092915050565b6000818381151561185a57fe5b04905092915050565b828054600181600116156101000203166002900490600052602060002090601f016020900481019282601f106118a457805160ff19168380011785556118d2565b828001600101855582156118d2579182015b828111156118d15782518255916020019190600101906118b6565b5b5090506118df91906118e3565b5090565b61190591905b808211156119015760008160009055506001016118e9565b5090565b905600a165627a7a7230582035e31f078dd483059b0f0be6d1be21291c3123b787e3e7be07f77993c0b92fa00029",
  "source": "pragma solidity ^0.4.25;\n\nimport \"../node_modules/openzeppelin-solidity/contracts/math/SafeMath.sol\";\n\ncontract FlightSuretyData {\n    using SafeMath for uint256;\n\n    /********************************************************************************************/\n    /*                                       DATA VARIABLES                                     */\n    /********************************************************************************************/\n\n    address private contractOwner;                    // Account used to deploy contract\n    bool private operational = true;                 // Blocks all state changes throughout the contract if false\n\n    struct Insurance {\n        address owner;\n        bytes32 key;\n        uint256 amount;\n    }\n\n    struct Airline {  //Struct to classify an airline and hold relevant info\n        string name;\n        address account;\n        bool isRegistered;\n        bool isAuthorized;\n        bool operationalVote;\n    }\n\n\n   //constant M refers to number of airlines needed to use multi-party consensus\n    uint256 private changeOperatingStatusVotes = 0;\n\n    uint statusVotes;\n    uint256 private authorizedAirlineCount = 0;\n    mapping (address => mapping(address => uint8)) private multiCalls;\n    address[] multiCallsArray = new address[](0);   //array of addresses that have called the registerFlight function\n\n    mapping(address => uint256) funds;\n    mapping(address => Airline) public airlines;      // Mapping for storing employees. Question: Does this contract have to inheret from the app contract in order to use a mapping that maps to an Airline type? (airline type is stored in the app contract, maybe this will have to change)\n    mapping(address => uint256) private authorizedAirlines;   // Mapping for airlines authorized\n    Insurance[] private insurance;\n    mapping(address => uint256) private credit;\n    mapping(address => uint256) private voteCounter;\n\n    mapping(address => bool) private authorizedCallers;\n    /********************************************************************************************/\n    /*                                       EVENT DEFINITIONS                                  */\n    /********************************************************************************************/\n\n    /**\n    * Event fired when a new Airline is registered\n    * \"indexed\" keyword indicates that the data should be stored as a \"topic\" in event log data. This makes it\n    * searchable by event log filters. A maximum of three parameters may use the indexed keyword per event.\n    */\n    event RegisterAirline(address indexed account);\n    event AuthorizeAirline(address account);\n\n    /**\n    * @dev Constructor\n    *      The deploying account becomes contractOwner\n    */\n    constructor\n                                (\n                                )\n                                public\n    {\n        contractOwner = msg.sender;\n\n        airlines[contractOwner] = Airline({\n                    name: \"Default Name\",\n                    account: contractOwner,\n                    isRegistered: true,\n                    isAuthorized: true,\n                    operationalVote: true\n                    });\n\n        authorizedAirlineCount = authorizedAirlineCount.add(1);\n\n        emit RegisterAirline(contractOwner);\n\n    }\n\n    /********************************************************************************************/\n    /*                                       FUNCTION MODIFIERS                                 */\n    /********************************************************************************************/\n\n    // Modifiers help avoid duplication of code. They are typically used to validate something\n    // before a function is allowed to be executed.\n\n    /**\n    * @dev Modifier that requires the \"operational\" boolean variable to be \"true\"\n    *      This is used on all state changing functions to pause the contract in\n    *      the event there is an issue that needs to be fixed\n    */\n    modifier requireIsOperational()\n    {\n        require(operational, \"Contract is currently not operational\");\n        _;  // All modifiers require an \"_\" which indicates where the function body will be added\n    }\n\n    /**\n    * @dev Modifier that requires the \"ContractOwner\" account to be the function caller\n    */\n    modifier requireContractOwner()\n    {\n        require(msg.sender == contractOwner, \"Caller is not contract owner\");\n        _;\n    }\n\n    modifier isAuthorized(Airline air) {\n        require(air.isAuthorized, \"Airline is not authorized to participate in this function\");\n        _;\n    }\n\n    /********************************************************************************************/\n    /*                                       UTILITY FUNCTIONS                                  */\n    /********************************************************************************************/\n\n    /**\n    * @dev Get operating status of contract\n    *\n    * @return A bool that is the current operating status\n    */\n    function isOperational()\n                            public\n                            view\n                            returns(bool)\n    {\n        return operational;\n    }\n\n    //getters for fields of the Airline struct -- don\n\n    function getAirlineName(address account) external view returns(string){\n        return airlines[account].name;\n    }\n    function getAirlineAccount(address account) external view returns(address){\n        return airlines[account].account;\n    }\n    function getRegistrationStatus(address account) external view returns(bool){\n        return airlines[account].isRegistered;\n    }\n    function getAuthorizationStatus(address account) external view returns(bool){\n        return airlines[account].isAuthorized;\n    }\n    function getOperationalVote(address account) external view returns(bool){\n        return airlines[account].operationalVote;\n    }\n\n\n\n    /**\n    * @dev Sets contract operations on/off\n    *\n    * When operational mode is disabled, all write transactions except for this one will fail\n    */\n    function setOperatingStatus\n                            (\n                                bool mode,\n                                address caller\n                            )\n                            external\n                            requireContractOwner\n                            isAuthorized(airlines[caller])\n    {\n        require(operational == airlines[caller].operationalVote, \"Duplicate caller\");\n        require(mode!=operational, \"New mode must be different from existing mode\");\n\n\n        if (authorizedAirlineCount < 4) {\n          operational = mode;\n        } else { //use multi-party consensus amount authorized airlines to reach 50% aggreement\n          changeOperatingStatusVotes = changeOperatingStatusVotes.add(1);\n          airlines[caller].operationalVote = mode;\n          if (changeOperatingStatusVotes >= (authorizedAirlineCount.div(2))) {\n            operational = mode;\n            changeOperatingStatusVotes = authorizedAirlineCount - changeOperatingStatusVotes;\n          }\n        }\n\n    }\n\n    /********************************************************************************************/\n    /*                                     SMART CONTRACT FUNCTIONS                             */\n    /********************************************************************************************/\n\n   /**\n    * @dev Add an airline to the registration queue\n    *      Can only be called from FlightSuretyApp contract\n    *\n    */\n    function registerAirline\n                            (\n                              string name,\n                              address newAirline,\n                              address admin\n                            )\n                            external\n                          //  isAuthorized(airlines[admin])\n                            returns\n                            (\n                                bool success,\n                                uint256 authorizedAirlineNumber,\n                                uint256 votes\n                            )\n    {\n      if (authorizedAirlineCount < 4) {\n        airlines[newAirline] = Airline({\n                    name: name,\n                    account: newAirline,\n                    isRegistered: true,\n                    isAuthorized: false,\n                    operationalVote: true\n                    });\n\n        emit RegisterAirline(newAirline);\n        return(true, authorizedAirlineCount, 1);\n      } else { //multiparty consensus\n        bool isDuplicate = false;\n        //better to use an owner parameter than msg.sender here?\n        if (multiCalls[newAirline][admin] == 1) {\n          isDuplicate = true;\n        }\n\n        require(!isDuplicate, \"Caller has already called this function\");\n        multiCalls[newAirline][admin] = 1;\n        voteCounter[newAirline] = voteCounter[newAirline].add(1);\n\n        if (voteCounter[newAirline] >= (authorizedAirlineCount.div(2))) {\n          airlines[newAirline] = Airline({\n                      name: name,\n                      account: newAirline,\n                      isRegistered: true,\n                      isAuthorized: true,\n                      operationalVote: true\n                      });\n\n          emit RegisterAirline(newAirline);\n\n          return(true, authorizedAirlineCount, voteCounter[newAirline]);\n        } else {\n          return(false, authorizedAirlineCount, voteCounter[newAirline]);\n        }\n\n      }\n\n    }\n\n\n   /**\n    * @dev Buy insurance for a flight\n    *\n    */\n    function buy\n                            (\n                            )\n                            external\n                            payable\n    {\n\n    }\n\n    /**\n     *  @dev Credits payouts to insurees\n    */\n    function creditInsurees\n                                (\n                                )\n                                external\n                                pure\n    {\n    }\n\n\n    /**\n     *  @dev Transfers eligible payout funds to insuree\n     *\n    */\n    function pay\n                            (\n                            )\n                            external\n                            pure\n    {\n\n    }\n\n   /**\n    * @dev Initial funding for the insurance. Unless there are too many delayed flights\n    *      resulting in insurance payouts, the contract should be self-sustaining\n    *\n    */\n    function fund\n                            (\n                              address sender\n                            )\n                            public\n                            payable\n                            //requireAuthorizedCaller (app contract)\n                            //isRegistered?\n                            //requireIsOperational\n                            //checkValue at least X ether\n                            //return change\n    {\n        uint256 existingAmount = funds[sender];\n        uint256 totalAmount = existingAmount.add(msg.value);\n        funds[sender] = 0;\n\n        sender.transfer(totalAmount);\n\n        if (airlines[sender].isAuthorized == false) {\n            airlines[sender].isAuthorized = true;\n            authorizedAirlineCount = authorizedAirlineCount.add(1);\n            emit AuthorizeAirline(sender);\n        }\n        funds[sender] = totalAmount;\n\n\n    }\n\n    function getFlightKey\n                        (\n                            address airline,\n                            string memory flight,\n                            uint256 timestamp\n                        )\n                        pure\n                        internal\n                        returns(bytes32)\n    {\n        return keccak256(abi.encodePacked(airline, flight, timestamp));\n    }\n\n    /**\n    * @dev Fallback function for funding smart contract.\n    *\n    */\n    function()\n                            external\n                            payable\n    {\n        fund(msg.sender);\n    }\n\n\n}\n",
  "sourcePath": "/Users/nstamm10/Documents/GitHub/FlightSuretyFinal/contracts/FlightSuretyData.sol",
  "compiler": {
    "name": "solc",
    "version": "0.4.26+commit.4563c3fc.Emscripten.clang"
  },
  "schemaVersion": "3.2.5",
  "updatedAt": "2020-11-30T19:15:00.725Z",
  "devdoc": {
    "methods": {
      "buy()": {
        "details": "Buy insurance for a flight    "
      },
      "creditInsurees()": {
        "details": "Credits payouts to insurees"
      },
      "fund(address)": {
        "details": "Initial funding for the insurance. Unless there are too many delayed flights     resulting in insurance payouts, the contract should be self-sustaining    "
      },
      "isOperational()": {
        "details": "Get operating status of contract",
        "return": "A bool that is the current operating status"
      },
      "pay()": {
        "details": "Transfers eligible payout funds to insuree    "
      },
      "registerAirline(string,address,address)": {
        "details": "Add an airline to the registration queue     Can only be called from FlightSuretyApp contract    "
      },
      "setOperatingStatus(bool,address)": {
        "details": "Sets contract operations on/off    * When operational mode is disabled, all write transactions except for this one will fail"
      }
    }
  },
  "userdoc": {
    "methods": {}
  }
}